{
  "contractName": "Tether",
  "abi": [
    {
      "inputs": [],
      "stateMutability": "nonpayable",
      "type": "constructor"
    },
    {
      "anonymous": false,
      "inputs": [
        {
          "indexed": true,
          "internalType": "address",
          "name": "owner",
          "type": "address"
        },
        {
          "indexed": true,
          "internalType": "address",
          "name": "spender",
          "type": "address"
        },
        {
          "indexed": false,
          "internalType": "uint256",
          "name": "value",
          "type": "uint256"
        }
      ],
      "name": "Approval",
      "type": "event"
    },
    {
      "anonymous": false,
      "inputs": [
        {
          "indexed": true,
          "internalType": "address",
          "name": "_from",
          "type": "address"
        },
        {
          "indexed": true,
          "internalType": "address",
          "name": "_to",
          "type": "address"
        },
        {
          "indexed": false,
          "internalType": "uint256",
          "name": "value",
          "type": "uint256"
        }
      ],
      "name": "Transfer",
      "type": "event"
    },
    {
      "inputs": [
        {
          "internalType": "address",
          "name": "",
          "type": "address"
        },
        {
          "internalType": "address",
          "name": "",
          "type": "address"
        }
      ],
      "name": "allowance",
      "outputs": [
        {
          "internalType": "uint256",
          "name": "",
          "type": "uint256"
        }
      ],
      "stateMutability": "view",
      "type": "function",
      "constant": true
    },
    {
      "inputs": [
        {
          "internalType": "address",
          "name": "",
          "type": "address"
        }
      ],
      "name": "balanceof",
      "outputs": [
        {
          "internalType": "uint256",
          "name": "",
          "type": "uint256"
        }
      ],
      "stateMutability": "view",
      "type": "function",
      "constant": true
    },
    {
      "inputs": [],
      "name": "decimals",
      "outputs": [
        {
          "internalType": "uint256",
          "name": "",
          "type": "uint256"
        }
      ],
      "stateMutability": "view",
      "type": "function",
      "constant": true
    },
    {
      "inputs": [],
      "name": "name",
      "outputs": [
        {
          "internalType": "string",
          "name": "",
          "type": "string"
        }
      ],
      "stateMutability": "view",
      "type": "function",
      "constant": true
    },
    {
      "inputs": [],
      "name": "symbol",
      "outputs": [
        {
          "internalType": "string",
          "name": "",
          "type": "string"
        }
      ],
      "stateMutability": "view",
      "type": "function",
      "constant": true
    },
    {
      "inputs": [],
      "name": "totalsupply",
      "outputs": [
        {
          "internalType": "uint256",
          "name": "",
          "type": "uint256"
        }
      ],
      "stateMutability": "view",
      "type": "function",
      "constant": true
    },
    {
      "inputs": [
        {
          "internalType": "address",
          "name": "_to",
          "type": "address"
        },
        {
          "internalType": "uint256",
          "name": "value",
          "type": "uint256"
        }
      ],
      "name": "transfer",
      "outputs": [
        {
          "internalType": "bool",
          "name": "success",
          "type": "bool"
        }
      ],
      "stateMutability": "nonpayable",
      "type": "function"
    },
    {
      "inputs": [
        {
          "internalType": "address",
          "name": "sender",
          "type": "address"
        },
        {
          "internalType": "uint256",
          "name": "value",
          "type": "uint256"
        }
      ],
      "name": "approve",
      "outputs": [
        {
          "internalType": "bool",
          "name": "success",
          "type": "bool"
        }
      ],
      "stateMutability": "nonpayable",
      "type": "function"
    },
    {
      "inputs": [
        {
          "internalType": "address",
          "name": "_from",
          "type": "address"
        },
        {
          "internalType": "address",
          "name": "_to",
          "type": "address"
        },
        {
          "internalType": "uint256",
          "name": "value",
          "type": "uint256"
        }
      ],
      "name": "transferfrom",
      "outputs": [
        {
          "internalType": "bool",
          "name": "success",
          "type": "bool"
        }
      ],
      "stateMutability": "nonpayable",
      "type": "function"
    }
  ],
  "bytecode": "0x60806040526040518060400160405280600681526020017f5465746865720000000000000000000000000000000000000000000000000000815250600090816200004a919062000379565b506040518060400160405280600481526020017f54555344000000000000000000000000000000000000000000000000000000008152506001908162000091919062000379565b5069d3c21bcecceda10000006002556012600355348015620000b257600080fd5b50600254600460003373ffffffffffffffffffffffffffffffffffffffff1673ffffffffffffffffffffffffffffffffffffffff1681526020019081526020016000208190555062000460565b600081519050919050565b7f4e487b7100000000000000000000000000000000000000000000000000000000600052604160045260246000fd5b7f4e487b7100000000000000000000000000000000000000000000000000000000600052602260045260246000fd5b600060028204905060018216806200018157607f821691505b60208210810362000197576200019662000139565b5b50919050565b60008190508160005260206000209050919050565b60006020601f8301049050919050565b600082821b905092915050565b600060088302620002017fffffffffffffffffffffffffffffffffffffffffffffffffffffffffffffffff82620001c2565b6200020d8683620001c2565b95508019841693508086168417925050509392505050565b6000819050919050565b6000819050919050565b60006200025a620002546200024e8462000225565b6200022f565b62000225565b9050919050565b6000819050919050565b620002768362000239565b6200028e620002858262000261565b848454620001cf565b825550505050565b600090565b620002a562000296565b620002b28184846200026b565b505050565b5b81811015620002da57620002ce6000826200029b565b600181019050620002b8565b5050565b601f8211156200032957620002f3816200019d565b620002fe84620001b2565b810160208510156200030e578190505b620003266200031d85620001b2565b830182620002b7565b50505b505050565b600082821c905092915050565b60006200034e600019846008026200032e565b1980831691505092915050565b60006200036983836200033b565b9150826002028217905092915050565b6200038482620000ff565b67ffffffffffffffff811115620003a0576200039f6200010a565b5b620003ac825462000168565b620003b9828285620002de565b600060209050601f831160018114620003f15760008415620003dc578287015190505b620003e885826200035b565b86555062000458565b601f19841662000401866200019d565b60005b828110156200042b5784890151825560018201915060208501945060208101905062000404565b868310156200044b578489015162000447601f8916826200033b565b8355505b6001600288020188555050505b505050505050565b610b7480620004706000396000f3fe608060405234801561001057600080fd5b50600436106100935760003560e01c806363b0545f1161006657806363b0545f1461013457806372dd529b1461016457806395d89b4114610182578063a9059cbb146101a0578063dd62ed3e146101d057610093565b806306fdde0314610098578063095ea7b3146100b6578063313ce567146100e65780633d64125b14610104575b600080fd5b6100a0610200565b6040516100ad919061080a565b60405180910390f35b6100d060048036038101906100cb91906108c5565b61028e565b6040516100dd9190610920565b60405180910390f35b6100ee610380565b6040516100fb919061094a565b60405180910390f35b61011e60048036038101906101199190610965565b610386565b60405161012b919061094a565b60405180910390f35b61014e60048036038101906101499190610992565b61039e565b60405161015b9190610920565b60405180910390f35b61016c61054f565b604051610179919061094a565b60405180910390f35b61018a610555565b604051610197919061080a565b60405180910390f35b6101ba60048036038101906101b591906108c5565b6105e3565b6040516101c79190610920565b60405180910390f35b6101ea60048036038101906101e591906109e5565b61074c565b6040516101f7919061094a565b60405180910390f35b6000805461020d90610a54565b80601f016020809104026020016040519081016040528092919081815260200182805461023990610a54565b80156102865780601f1061025b57610100808354040283529160200191610286565b820191906000526020600020905b81548152906001019060200180831161026957829003601f168201915b505050505081565b600081600560003373ffffffffffffffffffffffffffffffffffffffff1673ffffffffffffffffffffffffffffffffffffffff16815260200190815260200160002060008573ffffffffffffffffffffffffffffffffffffffff1673ffffffffffffffffffffffffffffffffffffffff168152602001908152602001600020819055508273ffffffffffffffffffffffffffffffffffffffff163373ffffffffffffffffffffffffffffffffffffffff167f8c5be1e5ebec7d5bd14f71427d1e84f3dd0314c0f7b2291e5b200ac8c7c3b9258460405161036e919061094a565b60405180910390a36001905092915050565b60035481565b60046020528060005260406000206000915090505481565b600081600460008673ffffffffffffffffffffffffffffffffffffffff1673ffffffffffffffffffffffffffffffffffffffff16815260200190815260200160002060008282546103ef9190610ab4565b9250508190555081600460008573ffffffffffffffffffffffffffffffffffffffff1673ffffffffffffffffffffffffffffffffffffffff16815260200190815260200160002060008282546104459190610ae8565b9250508190555081600560008673ffffffffffffffffffffffffffffffffffffffff1673ffffffffffffffffffffffffffffffffffffffff16815260200190815260200160002060003373ffffffffffffffffffffffffffffffffffffffff1673ffffffffffffffffffffffffffffffffffffffff16815260200190815260200160002060008282546104d89190610ab4565b925050819055508273ffffffffffffffffffffffffffffffffffffffff168473ffffffffffffffffffffffffffffffffffffffff167fddf252ad1be2c89b69c2b068fc378daa952ba7f163c4a11628f55a4df523b3ef8460405161053c919061094a565b60405180910390a3600190509392505050565b60025481565b6001805461056290610a54565b80601f016020809104026020016040519081016040528092919081815260200182805461058e90610a54565b80156105db5780601f106105b0576101008083540402835291602001916105db565b820191906000526020600020905b8154815290600101906020018083116105be57829003601f168201915b505050505081565b600081600460003373ffffffffffffffffffffffffffffffffffffffff1673ffffffffffffffffffffffffffffffffffffffff16815260200190815260200160002054101561063157600080fd5b81600460003373ffffffffffffffffffffffffffffffffffffffff1673ffffffffffffffffffffffffffffffffffffffff16815260200190815260200160002060008282546106809190610ab4565b9250508190555081600460008573ffffffffffffffffffffffffffffffffffffffff1673ffffffffffffffffffffffffffffffffffffffff16815260200190815260200160002060008282546106d69190610ae8565b925050819055508273ffffffffffffffffffffffffffffffffffffffff163373ffffffffffffffffffffffffffffffffffffffff167fddf252ad1be2c89b69c2b068fc378daa952ba7f163c4a11628f55a4df523b3ef8460405161073a919061094a565b60405180910390a36001905092915050565b6005602052816000526040600020602052806000526040600020600091509150505481565b600081519050919050565b600082825260208201905092915050565b60005b838110156107ab578082015181840152602081019050610790565b838111156107ba576000848401525b50505050565b6000601f19601f8301169050919050565b60006107dc82610771565b6107e6818561077c565b93506107f681856020860161078d565b6107ff816107c0565b840191505092915050565b6000602082019050818103600083015261082481846107d1565b905092915050565b600080fd5b600073ffffffffffffffffffffffffffffffffffffffff82169050919050565b600061085c82610831565b9050919050565b61086c81610851565b811461087757600080fd5b50565b60008135905061088981610863565b92915050565b6000819050919050565b6108a28161088f565b81146108ad57600080fd5b50565b6000813590506108bf81610899565b92915050565b600080604083850312156108dc576108db61082c565b5b60006108ea8582860161087a565b92505060206108fb858286016108b0565b9150509250929050565b60008115159050919050565b61091a81610905565b82525050565b60006020820190506109356000830184610911565b92915050565b6109448161088f565b82525050565b600060208201905061095f600083018461093b565b92915050565b60006020828403121561097b5761097a61082c565b5b60006109898482850161087a565b91505092915050565b6000806000606084860312156109ab576109aa61082c565b5b60006109b98682870161087a565b93505060206109ca8682870161087a565b92505060406109db868287016108b0565b9150509250925092565b600080604083850312156109fc576109fb61082c565b5b6000610a0a8582860161087a565b9250506020610a1b8582860161087a565b9150509250929050565b7f4e487b7100000000000000000000000000000000000000000000000000000000600052602260045260246000fd5b60006002820490506001821680610a6c57607f821691505b602082108103610a7f57610a7e610a25565b5b50919050565b7f4e487b7100000000000000000000000000000000000000000000000000000000600052601160045260246000fd5b6000610abf8261088f565b9150610aca8361088f565b925082821015610add57610adc610a85565b5b828203905092915050565b6000610af38261088f565b9150610afe8361088f565b9250827fffffffffffffffffffffffffffffffffffffffffffffffffffffffffffffffff03821115610b3357610b32610a85565b5b82820190509291505056fea26469706673582212202d3ca69ea0b0d16870f054a96a7fc49f2aeb045086b733662942cdced6a2c3f364736f6c634300080f0033",
  "immutableReferences": {},
  "source": "pragma solidity ^0.8.4;\r\ncontract Tether{\r\n    string public name='Tether';\r\n    string public symbol='TUSD';\r\n    uint public totalsupply=1000000000000000000000000;//10^18*10^6 1 million tokens\r\n    uint public decimals=18;\r\n    event Transfer(\r\n        address indexed _from,\r\n        address indexed _to,\r\n        uint value\r\n    );\r\n    event Approval(\r\n        address indexed owner,\r\n        address indexed spender,\r\n        uint value\r\n    );\r\n    mapping(address=>uint) public balanceof;\r\n    mapping(address=>mapping(address=>uint)) public allowance;\r\n    constructor() public{\r\n        balanceof[msg.sender]=totalsupply;\r\n    }\r\n    function transfer(address _to,uint value) public returns(bool success){\r\n        require(balanceof[msg.sender]>=value);\r\n        balanceof[msg.sender]-=value;\r\n        balanceof[_to]+=value;\r\n        emit Transfer(msg.sender, _to, value);\r\n        return true;\r\n    }\r\n    function approve(address sender,uint value) public returns(bool success){\r\n        allowance[msg.sender][sender]=value;\r\n        emit Approval(msg.sender, sender, value);\r\n        return true;\r\n    }\r\n    function transferfrom(address _from,address _to,uint value) public returns(bool success){\r\n        // require(balanceof[msg.sender]>=value);\r\n        // require(allowance[_from][msg.sender]>=value);\r\n        balanceof[_from]-=value;\r\n        balanceof[_to]+=value;\r\n        allowance[_from][msg.sender]-=value;\r\n        emit Transfer(_from, _to, value);\r\n        return true;\r\n    }\r\n}",
  "sourcePath": "D:\\Blockchain\\defi-staking-app-starter\\defi-staking-app-starter\\contracts\\Tether.sol",
  "compiler": {
    "name": "solc",
    "version": "0.8.15+commit.e14f2714.Emscripten.clang"
  },
  "schemaVersion": "3.4.8",
  "updatedAt": "2022-08-16T17:47:58.073Z",
  "networkType": "ethereum",
  "devdoc": {
    "kind": "dev",
    "methods": {},
    "version": 1
  },
  "userdoc": {
    "kind": "user",
    "methods": {},
    "version": 1
  }
}